{
  "_format": "hh-sol-artifact-1",
  "contractName": "WavePortal",
  "sourceName": "contracts/WavePortal.sol",
  "abi": [
    {
      "inputs": [],
      "stateMutability": "nonpayable",
      "type": "constructor"
    },
    {
      "anonymous": false,
      "inputs": [
        {
          "indexed": true,
          "internalType": "address",
          "name": "from",
          "type": "address"
        },
        {
          "indexed": false,
          "internalType": "uint256",
          "name": "timestamp",
          "type": "uint256"
        },
        {
          "indexed": false,
          "internalType": "string",
          "name": "message",
          "type": "string"
        }
      ],
      "name": "NewWave",
      "type": "event"
    },
    {
      "inputs": [
        {
          "internalType": "address",
          "name": "_addressToWhitelist",
          "type": "address"
        }
      ],
      "name": "addUser",
      "outputs": [],
      "stateMutability": "nonpayable",
      "type": "function"
    },
    {
      "inputs": [],
      "name": "getAllWaves",
      "outputs": [
        {
          "components": [
            {
              "internalType": "address",
              "name": "waver",
              "type": "address"
            },
            {
              "internalType": "string",
              "name": "message",
              "type": "string"
            },
            {
              "internalType": "uint256",
              "name": "timestamp",
              "type": "uint256"
            }
          ],
          "internalType": "struct WavePortal.Wave[]",
          "name": "",
          "type": "tuple[]"
        }
      ],
      "stateMutability": "view",
      "type": "function"
    },
    {
      "inputs": [],
      "name": "getTotal",
      "outputs": [
        {
          "internalType": "uint256",
          "name": "",
          "type": "uint256"
        },
        {
          "internalType": "uint256",
          "name": "",
          "type": "uint256"
        },
        {
          "internalType": "uint256",
          "name": "",
          "type": "uint256"
        }
      ],
      "stateMutability": "view",
      "type": "function"
    },
    {
      "inputs": [
        {
          "internalType": "string",
          "name": "_message",
          "type": "string"
        }
      ],
      "name": "wave",
      "outputs": [],
      "stateMutability": "nonpayable",
      "type": "function"
    }
  ],
  "bytecode": "0x608060405234801561001057600080fd5b5033600360006101000a81548173ffffffffffffffffffffffffffffffffffffffff021916908373ffffffffffffffffffffffffffffffffffffffff1602179055506110b4806100616000396000f3fe608060405234801561001057600080fd5b506004361061004c5760003560e01c8063421b2d8b14610051578063449d46c01461006d578063775a25e314610089578063bd43a908146100a9575b600080fd5b61006b6004803603810190610066919061098a565b6100c7565b005b61008760048036038101906100829190610afd565b6101b2565b005b610091610566565b6040516100a093929190610b5f565b60405180910390f35b6100b16105c0565b6040516100be9190610d4e565b60405180910390f35b600360009054906101000a900473ffffffffffffffffffffffffffffffffffffffff1673ffffffffffffffffffffffffffffffffffffffff163373ffffffffffffffffffffffffffffffffffffffff1614610157576040517f08c379a000000000000000000000000000000000000000000000000000000000815260040161014e90610dcd565b60405180910390fd5b6001600460008373ffffffffffffffffffffffffffffffffffffffff1673ffffffffffffffffffffffffffffffffffffffff16815260200190815260200160002060006101000a81548160ff02191690831515021790555050565b33600460008273ffffffffffffffffffffffffffffffffffffffff1673ffffffffffffffffffffffffffffffffffffffff16815260200190815260200160002060009054906101000a900460ff1661023f576040517f08c379a000000000000000000000000000000000000000000000000000000000815260040161023690610e39565b60405180910390fd5b60016000808282546102519190610e88565b9250508190555060006040518060400160405280600681526020017f77696e7465720000000000000000000000000000000000000000000000000000815250905060006040518060400160405280600681526020017f73756d6d657200000000000000000000000000000000000000000000000000008152509050816040516020016102dd9190610f1a565b60405160208183030381529060405280519060200120846040516020016103049190610f1a565b604051602081830303815290604052805190602001200361033e576001600260008282546103329190610e88565b925050819055506103ac565b8060405160200161034f9190610f1a565b60405160208183030381529060405280519060200120846040516020016103769190610f1a565b60405160208183030381529060405280519060200120036103ab5760018060008282546103a39190610e88565b925050819055505b5b6103ec6040518060400160405280601681526020017f257320776176656420772f206d657373616765202573000000000000000000008152503386610711565b600560405180606001604052803373ffffffffffffffffffffffffffffffffffffffff16815260200186815260200142815250908060018154018082558091505060019003906000526020600020906003020160009091909190915060008201518160000160006101000a81548173ffffffffffffffffffffffffffffffffffffffff021916908373ffffffffffffffffffffffffffffffffffffffff16021790555060208201518160010190805190602001906104ab929190610875565b506040820151816002015550503373ffffffffffffffffffffffffffffffffffffffff167f5f7e16dc676677766a70e9c5628aa6c54ddb8b6e5188e2ae1e1f17f1ffbea7164286604051610500929190610f6a565b60405180910390a26000600460003373ffffffffffffffffffffffffffffffffffffffff1673ffffffffffffffffffffffffffffffffffffffff16815260200190815260200160002060006101000a81548160ff02191690831515021790555050505050565b60008060006105ac6040518060400160405280601781526020017f5765206861766520256420746f74616c207761766573210000000000000000008152506000546107b0565b600054600154600254925092509250909192565b60606005805480602002602001604051908101604052809291908181526020016000905b8282101561070857838290600052602060002090600302016040518060600160405290816000820160009054906101000a900473ffffffffffffffffffffffffffffffffffffffff1673ffffffffffffffffffffffffffffffffffffffff1673ffffffffffffffffffffffffffffffffffffffff16815260200160018201805461066d90610fc9565b80601f016020809104026020016040519081016040528092919081815260200182805461069990610fc9565b80156106e65780601f106106bb576101008083540402835291602001916106e6565b820191906000526020600020905b8154815290600101906020018083116106c957829003601f168201915b50505050508152602001600282015481525050815260200190600101906105e4565b50505050905090565b6107ab83838360405160240161072993929190611009565b6040516020818303038152906040527fe0e9ad4f000000000000000000000000000000000000000000000000000000007bffffffffffffffffffffffffffffffffffffffffffffffffffffffff19166020820180517bffffffffffffffffffffffffffffffffffffffffffffffffffffffff838183161783525050505061084c565b505050565b61084882826040516024016107c692919061104e565b6040516020818303038152906040527f9710a9d0000000000000000000000000000000000000000000000000000000007bffffffffffffffffffffffffffffffffffffffffffffffffffffffff19166020820180517bffffffffffffffffffffffffffffffffffffffffffffffffffffffff838183161783525050505061084c565b5050565b60008151905060006a636f6e736f6c652e6c6f679050602083016000808483855afa5050505050565b82805461088190610fc9565b90600052602060002090601f0160209004810192826108a357600085556108ea565b82601f106108bc57805160ff19168380011785556108ea565b828001600101855582156108ea579182015b828111156108e95782518255916020019190600101906108ce565b5b5090506108f791906108fb565b5090565b5b808211156109145760008160009055506001016108fc565b5090565b6000604051905090565b600080fd5b600080fd5b600073ffffffffffffffffffffffffffffffffffffffff82169050919050565b60006109578261092c565b9050919050565b6109678161094c565b811461097257600080fd5b50565b6000813590506109848161095e565b92915050565b6000602082840312156109a05761099f610922565b5b60006109ae84828501610975565b91505092915050565b600080fd5b600080fd5b6000601f19601f8301169050919050565b7f4e487b7100000000000000000000000000000000000000000000000000000000600052604160045260246000fd5b610a0a826109c1565b810181811067ffffffffffffffff82111715610a2957610a286109d2565b5b80604052505050565b6000610a3c610918565b9050610a488282610a01565b919050565b600067ffffffffffffffff821115610a6857610a676109d2565b5b610a71826109c1565b9050602081019050919050565b82818337600083830152505050565b6000610aa0610a9b84610a4d565b610a32565b905082815260208101848484011115610abc57610abb6109bc565b5b610ac7848285610a7e565b509392505050565b600082601f830112610ae457610ae36109b7565b5b8135610af4848260208601610a8d565b91505092915050565b600060208284031215610b1357610b12610922565b5b600082013567ffffffffffffffff811115610b3157610b30610927565b5b610b3d84828501610acf565b91505092915050565b6000819050919050565b610b5981610b46565b82525050565b6000606082019050610b746000830186610b50565b610b816020830185610b50565b610b8e6040830184610b50565b949350505050565b600081519050919050565b600082825260208201905092915050565b6000819050602082019050919050565b610bcb8161094c565b82525050565b600081519050919050565b600082825260208201905092915050565b60005b83811015610c0b578082015181840152602081019050610bf0565b83811115610c1a576000848401525b50505050565b6000610c2b82610bd1565b610c358185610bdc565b9350610c45818560208601610bed565b610c4e816109c1565b840191505092915050565b610c6281610b46565b82525050565b6000606083016000830151610c806000860182610bc2565b5060208301518482036020860152610c988282610c20565b9150506040830151610cad6040860182610c59565b508091505092915050565b6000610cc48383610c68565b905092915050565b6000602082019050919050565b6000610ce482610b96565b610cee8185610ba1565b935083602082028501610d0085610bb2565b8060005b85811015610d3c5784840389528151610d1d8582610cb8565b9450610d2883610ccc565b925060208a01995050600181019050610d04565b50829750879550505050505092915050565b60006020820190508181036000830152610d688184610cd9565b905092915050565b600082825260208201905092915050565b7f4f776e61626c653a2063616c6c6572206973206e6f7420746865206f776e6572600082015250565b6000610db7602083610d70565b9150610dc282610d81565b602082019050919050565b60006020820190508181036000830152610de681610daa565b9050919050565b7f596f75206e65656420746f2062652077686974656c6973746564000000000000600082015250565b6000610e23601a83610d70565b9150610e2e82610ded565b602082019050919050565b60006020820190508181036000830152610e5281610e16565b9050919050565b7f4e487b7100000000000000000000000000000000000000000000000000000000600052601160045260246000fd5b6000610e9382610b46565b9150610e9e83610b46565b9250827fffffffffffffffffffffffffffffffffffffffffffffffffffffffffffffffff03821115610ed357610ed2610e59565b5b828201905092915050565b600081905092915050565b6000610ef482610bd1565b610efe8185610ede565b9350610f0e818560208601610bed565b80840191505092915050565b6000610f268284610ee9565b915081905092915050565b6000610f3c82610bd1565b610f468185610d70565b9350610f56818560208601610bed565b610f5f816109c1565b840191505092915050565b6000604082019050610f7f6000830185610b50565b8181036020830152610f918184610f31565b90509392505050565b7f4e487b7100000000000000000000000000000000000000000000000000000000600052602260045260246000fd5b60006002820490506001821680610fe157607f821691505b602082108103610ff457610ff3610f9a565b5b50919050565b6110038161094c565b82525050565b600060608201905081810360008301526110238186610f31565b90506110326020830185610ffa565b81810360408301526110448184610f31565b9050949350505050565b600060408201905081810360008301526110688185610f31565b90506110776020830184610b50565b939250505056fea26469706673582212203a87d09151ae0caa27e5935eb044074317055a986ac256549d9baeaf3cc57e3464736f6c634300080d0033",
  "linkReferences": {},
  "deployedLinkReferences": {}
}